{
  "_format": "hh-sol-artifact-1",
  "contractName": "StudentAttendance",
  "sourceName": "contracts/StudentAttendance.sol",
  "abi": [
    {
      "inputs": [],
      "stateMutability": "nonpayable",
      "type": "constructor"
    },
    {
      "anonymous": false,
      "inputs": [
        {
          "indexed": false,
          "internalType": "uint256",
          "name": "sessionId",
          "type": "uint256"
        },
        {
          "indexed": false,
          "internalType": "string",
          "name": "name",
          "type": "string"
        },
        {
          "indexed": false,
          "internalType": "string",
          "name": "studentCode",
          "type": "string"
        },
        {
          "indexed": false,
          "internalType": "uint256",
          "name": "timestamp",
          "type": "uint256"
        }
      ],
      "name": "AttendanceMarked",
      "type": "event"
    },
    {
      "anonymous": false,
      "inputs": [
        {
          "indexed": false,
          "internalType": "uint256",
          "name": "sessionId",
          "type": "uint256"
        },
        {
          "indexed": false,
          "internalType": "string",
          "name": "studentCode",
          "type": "string"
        }
      ],
      "name": "AttendanceRevoked",
      "type": "event"
    },
    {
      "anonymous": false,
      "inputs": [
        {
          "indexed": false,
          "internalType": "uint256",
          "name": "id",
          "type": "uint256"
        },
        {
          "indexed": false,
          "internalType": "string",
          "name": "name",
          "type": "string"
        },
        {
          "indexed": false,
          "internalType": "string",
          "name": "courseCode",
          "type": "string"
        }
      ],
      "name": "CourseCreated",
      "type": "event"
    },
    {
      "anonymous": false,
      "inputs": [
        {
          "indexed": false,
          "internalType": "uint256",
          "name": "id",
          "type": "uint256"
        }
      ],
      "name": "CourseDeleted",
      "type": "event"
    },
    {
      "anonymous": false,
      "inputs": [
        {
          "indexed": false,
          "internalType": "uint256",
          "name": "id",
          "type": "uint256"
        },
        {
          "indexed": false,
          "internalType": "string",
          "name": "name",
          "type": "string"
        },
        {
          "indexed": false,
          "internalType": "string",
          "name": "courseCode",
          "type": "string"
        }
      ],
      "name": "CourseUpdated",
      "type": "event"
    },
    {
      "anonymous": false,
      "inputs": [
        {
          "indexed": false,
          "internalType": "uint256",
          "name": "id",
          "type": "uint256"
        },
        {
          "indexed": false,
          "internalType": "uint256",
          "name": "courseId",
          "type": "uint256"
        },
        {
          "indexed": false,
          "internalType": "string",
          "name": "name",
          "type": "string"
        }
      ],
      "name": "SessionCreated",
      "type": "event"
    },
    {
      "anonymous": false,
      "inputs": [
        {
          "indexed": false,
          "internalType": "uint256",
          "name": "id",
          "type": "uint256"
        }
      ],
      "name": "SessionDeleted",
      "type": "event"
    },
    {
      "anonymous": false,
      "inputs": [
        {
          "indexed": false,
          "internalType": "uint256",
          "name": "id",
          "type": "uint256"
        },
        {
          "indexed": false,
          "internalType": "string",
          "name": "name",
          "type": "string"
        },
        {
          "indexed": false,
          "internalType": "bool",
          "name": "isOpen",
          "type": "bool"
        }
      ],
      "name": "SessionUpdated",
      "type": "event"
    },
    {
      "anonymous": false,
      "inputs": [
        {
          "indexed": false,
          "internalType": "string",
          "name": "name",
          "type": "string"
        },
        {
          "indexed": false,
          "internalType": "string",
          "name": "studentCode",
          "type": "string"
        }
      ],
      "name": "StudentAdded",
      "type": "event"
    },
    {
      "anonymous": false,
      "inputs": [
        {
          "indexed": false,
          "internalType": "string",
          "name": "studentCode",
          "type": "string"
        }
      ],
      "name": "StudentDeleted",
      "type": "event"
    },
    {
      "anonymous": false,
      "inputs": [
        {
          "indexed": false,
          "internalType": "string",
          "name": "studentCode",
          "type": "string"
        },
        {
          "indexed": false,
          "internalType": "string",
          "name": "name",
          "type": "string"
        }
      ],
      "name": "StudentUpdated",
      "type": "event"
    },
    {
      "inputs": [
        {
          "internalType": "string",
          "name": "_name",
          "type": "string"
        },
        {
          "internalType": "string",
          "name": "_studentCode",
          "type": "string"
        }
      ],
      "name": "addStudent",
      "outputs": [],
      "stateMutability": "nonpayable",
      "type": "function"
    },
    {
      "inputs": [
        {
          "internalType": "uint256",
          "name": "",
          "type": "uint256"
        }
      ],
      "name": "courses",
      "outputs": [
        {
          "internalType": "uint256",
          "name": "id",
          "type": "uint256"
        },
        {
          "internalType": "string",
          "name": "name",
          "type": "string"
        },
        {
          "internalType": "string",
          "name": "courseCode",
          "type": "string"
        },
        {
          "internalType": "bool",
          "name": "isHidden",
          "type": "bool"
        }
      ],
      "stateMutability": "view",
      "type": "function"
    },
    {
      "inputs": [
        {
          "internalType": "string",
          "name": "_name",
          "type": "string"
        },
        {
          "internalType": "string",
          "name": "_courseCode",
          "type": "string"
        }
      ],
      "name": "createCourse",
      "outputs": [],
      "stateMutability": "nonpayable",
      "type": "function"
    },
    {
      "inputs": [
        {
          "internalType": "uint256",
          "name": "_courseId",
          "type": "uint256"
        },
        {
          "internalType": "string",
          "name": "_name",
          "type": "string"
        }
      ],
      "name": "createSession",
      "outputs": [],
      "stateMutability": "nonpayable",
      "type": "function"
    },
    {
      "inputs": [
        {
          "internalType": "uint256",
          "name": "_id",
          "type": "uint256"
        }
      ],
      "name": "deleteCourse",
      "outputs": [],
      "stateMutability": "nonpayable",
      "type": "function"
    },
    {
      "inputs": [
        {
          "internalType": "uint256",
          "name": "_sessionId",
          "type": "uint256"
        }
      ],
      "name": "deleteSession",
      "outputs": [],
      "stateMutability": "nonpayable",
      "type": "function"
    },
    {
      "inputs": [
        {
          "internalType": "string",
          "name": "_studentCode",
          "type": "string"
        }
      ],
      "name": "deleteStudent",
      "outputs": [],
      "stateMutability": "nonpayable",
      "type": "function"
    },
    {
      "inputs": [],
      "name": "getCourses",
      "outputs": [
        {
          "components": [
            {
              "internalType": "uint256",
              "name": "id",
              "type": "uint256"
            },
            {
              "internalType": "string",
              "name": "name",
              "type": "string"
            },
            {
              "internalType": "string",
              "name": "courseCode",
              "type": "string"
            },
            {
              "internalType": "bool",
              "name": "isHidden",
              "type": "bool"
            }
          ],
          "internalType": "struct StudentAttendance.Course[]",
          "name": "",
          "type": "tuple[]"
        }
      ],
      "stateMutability": "view",
      "type": "function"
    },
    {
      "inputs": [],
      "name": "getMasterStudents",
      "outputs": [
        {
          "components": [
            {
              "internalType": "string",
              "name": "name",
              "type": "string"
            },
            {
              "internalType": "string",
              "name": "studentCode",
              "type": "string"
            },
            {
              "internalType": "bool",
              "name": "exists",
              "type": "bool"
            },
            {
              "internalType": "bool",
              "name": "isHidden",
              "type": "bool"
            }
          ],
          "internalType": "struct StudentAttendance.StudentInfo[]",
          "name": "",
          "type": "tuple[]"
        }
      ],
      "stateMutability": "view",
      "type": "function"
    },
    {
      "inputs": [],
      "name": "getSessions",
      "outputs": [
        {
          "components": [
            {
              "internalType": "uint256",
              "name": "id",
              "type": "uint256"
            },
            {
              "internalType": "uint256",
              "name": "courseId",
              "type": "uint256"
            },
            {
              "internalType": "string",
              "name": "name",
              "type": "string"
            },
            {
              "internalType": "bool",
              "name": "isOpen",
              "type": "bool"
            },
            {
              "internalType": "bool",
              "name": "isHidden",
              "type": "bool"
            },
            {
              "internalType": "uint256",
              "name": "createdAt",
              "type": "uint256"
            }
          ],
          "internalType": "struct StudentAttendance.Session[]",
          "name": "",
          "type": "tuple[]"
        }
      ],
      "stateMutability": "view",
      "type": "function"
    },
    {
      "inputs": [
        {
          "internalType": "uint256",
          "name": "_sessionId",
          "type": "uint256"
        }
      ],
      "name": "getStudentsBySession",
      "outputs": [
        {
          "components": [
            {
              "internalType": "uint256",
              "name": "id",
              "type": "uint256"
            },
            {
              "internalType": "string",
              "name": "name",
              "type": "string"
            },
            {
              "internalType": "string",
              "name": "studentCode",
              "type": "string"
            },
            {
              "internalType": "uint256",
              "name": "timestamp",
              "type": "uint256"
            },
            {
              "internalType": "bool",
              "name": "isRevoked",
              "type": "bool"
            }
          ],
          "internalType": "struct StudentAttendance.Student[]",
          "name": "",
          "type": "tuple[]"
        }
      ],
      "stateMutability": "view",
      "type": "function"
    },
    {
      "inputs": [
        {
          "internalType": "uint256",
          "name": "",
          "type": "uint256"
        },
        {
          "internalType": "string",
          "name": "",
          "type": "string"
        }
      ],
      "name": "hasAttended",
      "outputs": [
        {
          "internalType": "bool",
          "name": "",
          "type": "bool"
        }
      ],
      "stateMutability": "view",
      "type": "function"
    },
    {
      "inputs": [
        {
          "internalType": "uint256",
          "name": "_sessionId",
          "type": "uint256"
        },
        {
          "internalType": "string",
          "name": "_name",
          "type": "string"
        },
        {
          "internalType": "string",
          "name": "_studentCode",
          "type": "string"
        }
      ],
      "name": "markAttendance",
      "outputs": [],
      "stateMutability": "nonpayable",
      "type": "function"
    },
    {
      "inputs": [
        {
          "internalType": "uint256",
          "name": "",
          "type": "uint256"
        }
      ],
      "name": "masterStudents",
      "outputs": [
        {
          "internalType": "string",
          "name": "name",
          "type": "string"
        },
        {
          "internalType": "string",
          "name": "studentCode",
          "type": "string"
        },
        {
          "internalType": "bool",
          "name": "exists",
          "type": "bool"
        },
        {
          "internalType": "bool",
          "name": "isHidden",
          "type": "bool"
        }
      ],
      "stateMutability": "view",
      "type": "function"
    },
    {
      "inputs": [],
      "name": "owner",
      "outputs": [
        {
          "internalType": "address",
          "name": "",
          "type": "address"
        }
      ],
      "stateMutability": "view",
      "type": "function"
    },
    {
      "inputs": [
        {
          "internalType": "uint256",
          "name": "_sessionId",
          "type": "uint256"
        },
        {
          "internalType": "string",
          "name": "_studentCode",
          "type": "string"
        }
      ],
      "name": "revokeAttendance",
      "outputs": [],
      "stateMutability": "nonpayable",
      "type": "function"
    },
    {
      "inputs": [
        {
          "internalType": "uint256",
          "name": "",
          "type": "uint256"
        },
        {
          "internalType": "uint256",
          "name": "",
          "type": "uint256"
        }
      ],
      "name": "sessionStudents",
      "outputs": [
        {
          "internalType": "uint256",
          "name": "id",
          "type": "uint256"
        },
        {
          "internalType": "string",
          "name": "name",
          "type": "string"
        },
        {
          "internalType": "string",
          "name": "studentCode",
          "type": "string"
        },
        {
          "internalType": "uint256",
          "name": "timestamp",
          "type": "uint256"
        },
        {
          "internalType": "bool",
          "name": "isRevoked",
          "type": "bool"
        }
      ],
      "stateMutability": "view",
      "type": "function"
    },
    {
      "inputs": [
        {
          "internalType": "uint256",
          "name": "",
          "type": "uint256"
        }
      ],
      "name": "sessions",
      "outputs": [
        {
          "internalType": "uint256",
          "name": "id",
          "type": "uint256"
        },
        {
          "internalType": "uint256",
          "name": "courseId",
          "type": "uint256"
        },
        {
          "internalType": "string",
          "name": "name",
          "type": "string"
        },
        {
          "internalType": "bool",
          "name": "isOpen",
          "type": "bool"
        },
        {
          "internalType": "bool",
          "name": "isHidden",
          "type": "bool"
        },
        {
          "internalType": "uint256",
          "name": "createdAt",
          "type": "uint256"
        }
      ],
      "stateMutability": "view",
      "type": "function"
    },
    {
      "inputs": [
        {
          "internalType": "string",
          "name": "",
          "type": "string"
        }
      ],
      "name": "studentCodeExists",
      "outputs": [
        {
          "internalType": "bool",
          "name": "",
          "type": "bool"
        }
      ],
      "stateMutability": "view",
      "type": "function"
    },
    {
      "inputs": [
        {
          "internalType": "uint256",
          "name": "_id",
          "type": "uint256"
        },
        {
          "internalType": "string",
          "name": "_name",
          "type": "string"
        },
        {
          "internalType": "string",
          "name": "_courseCode",
          "type": "string"
        }
      ],
      "name": "updateCourse",
      "outputs": [],
      "stateMutability": "nonpayable",
      "type": "function"
    },
    {
      "inputs": [
        {
          "internalType": "uint256",
          "name": "_sessionId",
          "type": "uint256"
        },
        {
          "internalType": "string",
          "name": "_newName",
          "type": "string"
        },
        {
          "internalType": "bool",
          "name": "_isOpen",
          "type": "bool"
        }
      ],
      "name": "updateSession",
      "outputs": [],
      "stateMutability": "nonpayable",
      "type": "function"
    },
    {
      "inputs": [
        {
          "internalType": "string",
          "name": "_studentCode",
          "type": "string"
        },
        {
          "internalType": "string",
          "name": "_newName",
          "type": "string"
        }
      ],
      "name": "updateStudent",
      "outputs": [],
      "stateMutability": "nonpayable",
      "type": "function"
    }
  ],
  "bytecode": "0x608060405234801561001057600080fd5b50336000806101000a81548173ffffffffffffffffffffffffffffffffffffffff021916908373ffffffffffffffffffffffffffffffffffffffff160217905550613d4c806100606000396000f3fe608060405234801561001057600080fd5b50600436106101425760003560e01c806396f979d2116100b8578063b46557041161007c578063b465570414610379578063bcd90c99146103ad578063cc126479146103c9578063d3263b4f146103e7578063e22312011461041a578063e27bb1f71461043657610142565b806396f979d2146102ae5780639dad8d22146102e1578063a26a7953146102fd578063acba617114610319578063b0b4ecbd1461034957610142565b806363351c511161010a57806363351c51146101e957806383c4b7a3146102055780638955895f1461023a5780638da5cb5b146102565780638fc9385e1461027457806394f9d84c1461029257610142565b806311dd74e71461014757806336f95cc4146101775780633ce6a65f1461019357806343543a55146101af57806361503e45146101cb575b600080fd5b610161600480360381019061015c919061272a565b610452565b60405161016e91906127a1565b60405180910390f35b610191600480360381019061018c919061272a565b610497565b005b6101ad60048036038101906101a891906127bc565b61076c565b005b6101c960048036038101906101c49190612873565b610ad8565b005b6101d3610c5d565b6040516101e09190612aca565b60405180910390f35b61020360048036038101906101fe919061272a565b610da2565b005b61021f600480360381019061021a9190612aec565b610f7a565b60405161023196959493929190612b72565b60405180910390f35b610254600480360381019061024f9190612bda565b611068565b005b61025e611249565b60405161026b9190612c64565b60405180910390f35b61027c61126d565b6040516102899190612dab565b60405180910390f35b6102ac60048036038101906102a791906127bc565b611426565b005b6102c860048036038101906102c39190612aec565b6115a1565b6040516102d89493929190612dcd565b60405180910390f35b6102fb60048036038101906102f69190612aec565b6116fe565b005b61031760048036038101906103129190612e20565b61184a565b005b610333600480360381019061032e9190612aec565b6119c9565b6040516103409190612fd7565b60405180910390f35b610363600480360381019061035e9190612bda565b611b8e565b60405161037091906127a1565b60405180910390f35b610393600480360381019061038e9190612ff9565b611bc4565b6040516103a4959493929190613039565b60405180910390f35b6103c760048036038101906103c29190612e20565b611d34565b005b6103d1611f0d565b6040516103de91906131c6565b60405180910390f35b61040160048036038101906103fc9190612aec565b6120b5565b60405161041194939291906131e8565b60405180910390f35b610434600480360381019061042f9190612aec565b61221f565b005b610450600480360381019061044b9190612e20565b61236c565b005b6006602052816000526040600020818051602081018201805184825260208301602085012081835280955050505050506000915091509054906101000a900460ff1681565b60008054906101000a900473ffffffffffffffffffffffffffffffffffffffff1673ffffffffffffffffffffffffffffffffffffffff163373ffffffffffffffffffffffffffffffffffffffff1614610525576040517f08c379a000000000000000000000000000000000000000000000000000000000815260040161051c906132ad565b60405180910390fd5b600280549050821061056c576040517f08c379a000000000000000000000000000000000000000000000000000000000815260040161056390613319565b60405180910390fd5b600660008381526020019081526020016000208160405161058d9190613375565b908152602001604051809103902060009054906101000a900460ff166105e8576040517f08c379a00000000000000000000000000000000000000000000000000000000081526004016105df906133d8565b60405180910390fd5b600060056000848152602001908152602001600020905060005b8180549050811015610766578280519060200120828281548110610629576106286133f8565b5b9060005260206000209060050201600201604051610647919061352a565b604051809103902014801561068b575081818154811061066a576106696133f8565b5b906000526020600020906005020160040160009054906101000a900460ff16155b156107535760018282815481106106a5576106a46133f8565b5b906000526020600020906005020160040160006101000a81548160ff021916908315150217905550600060066000868152602001908152602001600020846040516106f09190613375565b908152602001604051809103902060006101000a81548160ff0219169083151502179055507f5e1c864e78a460da82edd8ee7ee8f7abe4c0e83dd4c1d0c8709cbf606c922ce18484604051610746929190613541565b60405180910390a1610766565b808061075e906135a0565b915050610602565b50505050565b60028054905083106107b3576040517f08c379a00000000000000000000000000000000000000000000000000000000081526004016107aa90613319565b60405180910390fd5b600283815481106107c7576107c66133f8565b5b906000526020600020906005020160030160019054906101000a900460ff1615610826576040517f08c379a000000000000000000000000000000000000000000000000000000000815260040161081d90613634565b60405180910390fd5b6002838154811061083a576108396133f8565b5b906000526020600020906005020160030160009054906101000a900460ff16610898576040517f08c379a000000000000000000000000000000000000000000000000000000000815260040161088f906136a0565b60405180910390fd5b60066000848152602001908152602001600020816040516108b99190613375565b908152602001604051809103902060009054906101000a900460ff16156109585760066000848152602001908152602001600020816040516108fb9190613375565b908152602001604051809103902060009054906101000a900460ff1615610957576040517f08c379a000000000000000000000000000000000000000000000000000000000815260040161094e9061370c565b60405180910390fd5b5b60006001600560008681526020019081526020016000208054905061097d919061372c565b90506000429050600560008681526020019081526020016000206040518060a00160405280848152602001868152602001858152602001838152602001600015158152509080600181540180825580915050600190039060005260206000209060050201600090919091909150600082015181600001556020820151816001019081610a09919061390c565b506040820151816002019081610a1f919061390c565b506060820151816003015560808201518160040160006101000a81548160ff021916908315150217905550505060016006600087815260200190815260200160002084604051610a6f9190613375565b908152602001604051809103902060006101000a81548160ff0219169083151502179055507f40e7feb3649056fc678fbce00a45ae03946c4a42f0d36e8a3e02dc4bac3a9e8485858584604051610ac994939291906139de565b60405180910390a15050505050565b60008054906101000a900473ffffffffffffffffffffffffffffffffffffffff1673ffffffffffffffffffffffffffffffffffffffff163373ffffffffffffffffffffffffffffffffffffffff1614610b66576040517f08c379a0000000000000000000000000000000000000000000000000000000008152600401610b5d906132ad565b60405180910390fd5b6002805490508310610bad576040517f08c379a0000000000000000000000000000000000000000000000000000000008152600401610ba490613319565b60405180910390fd5b8160028481548110610bc257610bc16133f8565b5b90600052602060002090600502016002019081610bdf919061390c565b508060028481548110610bf557610bf46133f8565b5b906000526020600020906005020160030160006101000a81548160ff0219169083151502179055507fa3af963779b1a4a9bcbc33886dae5984801b06b7301f911dfec82f7374c2f02e838383604051610c5093929190613a31565b60405180910390a1505050565b60606002805480602002602001604051908101604052809291908181526020016000905b82821015610d9957838290600052602060002090600502016040518060c00160405290816000820154815260200160018201548152602001600282018054610cc890613456565b80601f0160208091040260200160405190810160405280929190818152602001828054610cf490613456565b8015610d415780601f10610d1657610100808354040283529160200191610d41565b820191906000526020600020905b815481529060010190602001808311610d2457829003601f168201915b505050505081526020016003820160009054906101000a900460ff161515151581526020016003820160019054906101000a900460ff1615151515815260200160048201548152505081526020019060010190610c81565b50505050905090565b6001805490508210610de9576040517f08c379a0000000000000000000000000000000000000000000000000000000008152600401610de090613abb565b60405180910390fd5b60018281548110610dfd57610dfc6133f8565b5b906000526020600020906004020160030160009054906101000a900460ff1615610e5c576040517f08c379a0000000000000000000000000000000000000000000000000000000008152600401610e5390613b27565b60405180910390fd5b6000600280549050905060026040518060c0016040528083815260200185815260200184815260200160011515815260200160001515815260200142815250908060018154018082558091505060019003906000526020600020906005020160009091909190915060008201518160000155602082015181600101556040820151816002019081610eed919061390c565b5060608201518160030160006101000a81548160ff02191690831515021790555060808201518160030160016101000a81548160ff02191690831515021790555060a0820151816004015550507f4fab47493386293facdc7d4143df9bdc38cc2ee0a1afb5393ade7e1009f9aa01818484604051610f6d93929190613b47565b60405180910390a1505050565b60028181548110610f8a57600080fd5b9060005260206000209060050201600091509050806000015490806001015490806002018054610fb990613456565b80601f0160208091040260200160405190810160405280929190818152602001828054610fe590613456565b80156110325780601f1061100757610100808354040283529160200191611032565b820191906000526020600020905b81548152906001019060200180831161101557829003601f168201915b5050505050908060030160009054906101000a900460ff16908060030160019054906101000a900460ff16908060040154905086565b60008054906101000a900473ffffffffffffffffffffffffffffffffffffffff1673ffffffffffffffffffffffffffffffffffffffff163373ffffffffffffffffffffffffffffffffffffffff16146110f6576040517f08c379a00000000000000000000000000000000000000000000000000000000081526004016110ed906132ad565b60405180910390fd5b6004816040516111069190613375565b908152602001604051809103902060009054906101000a900460ff16611161576040517f08c379a000000000000000000000000000000000000000000000000000000000815260040161115890613bd1565b60405180910390fd5b60005b6003805490508110156112455781805190602001206003828154811061118d5761118c6133f8565b5b90600052602060002090600302016001016040516111ab919061352a565b604051809103902003611232576001600382815481106111ce576111cd6133f8565b5b906000526020600020906003020160020160016101000a81548160ff0219169083151502179055507fa6fb241657c3c18fc80b9ead1a3ff49713b698afdf880800d2fc42f10098cd53826040516112259190613bf1565b60405180910390a1611245565b808061123d906135a0565b915050611164565b5050565b60008054906101000a900473ffffffffffffffffffffffffffffffffffffffff1681565b60606003805480602002602001604051908101604052809291908181526020016000905b8282101561141d57838290600052602060002090600302016040518060800160405290816000820180546112c490613456565b80601f01602080910402602001604051908101604052809291908181526020018280546112f090613456565b801561133d5780601f106113125761010080835404028352916020019161133d565b820191906000526020600020905b81548152906001019060200180831161132057829003601f168201915b5050505050815260200160018201805461135690613456565b80601f016020809104026020016040519081016040528092919081815260200182805461138290613456565b80156113cf5780601f106113a4576101008083540402835291602001916113cf565b820191906000526020600020905b8154815290600101906020018083116113b257829003601f168201915b505050505081526020016002820160009054906101000a900460ff161515151581526020016002820160019054906101000a900460ff16151515158152505081526020019060010190611291565b50505050905090565b60008054906101000a900473ffffffffffffffffffffffffffffffffffffffff1673ffffffffffffffffffffffffffffffffffffffff163373ffffffffffffffffffffffffffffffffffffffff16146114b4576040517f08c379a00000000000000000000000000000000000000000000000000000000081526004016114ab906132ad565b60405180910390fd5b60018054905083106114fb576040517f08c379a00000000000000000000000000000000000000000000000000000000081526004016114f290613abb565b60405180910390fd5b81600184815481106115105761150f6133f8565b5b9060005260206000209060040201600101908161152d919061390c565b508060018481548110611543576115426133f8565b5b90600052602060002090600402016002019081611560919061390c565b507f81010066df8fe80e7dd772fe3c5b10c5de0bc8cea9e5969bb81ed9f1f5c74b3383838360405161159493929190613c13565b60405180910390a1505050565b600181815481106115b157600080fd5b90600052602060002090600402016000915090508060000154908060010180546115da90613456565b80601f016020809104026020016040519081016040528092919081815260200182805461160690613456565b80156116535780601f1061162857610100808354040283529160200191611653565b820191906000526020600020905b81548152906001019060200180831161163657829003601f168201915b50505050509080600201805461166890613456565b80601f016020809104026020016040519081016040528092919081815260200182805461169490613456565b80156116e15780601f106116b6576101008083540402835291602001916116e1565b820191906000526020600020905b8154815290600101906020018083116116c457829003601f168201915b5050505050908060030160009054906101000a900460ff16905084565b60008054906101000a900473ffffffffffffffffffffffffffffffffffffffff1673ffffffffffffffffffffffffffffffffffffffff163373ffffffffffffffffffffffffffffffffffffffff161461178c576040517f08c379a0000000000000000000000000000000000000000000000000000000008152600401611783906132ad565b60405180910390fd5b60018054905081106117d3576040517f08c379a00000000000000000000000000000000000000000000000000000000081526004016117ca90613abb565b60405180910390fd5b60018082815481106117e8576117e76133f8565b5b906000526020600020906004020160030160006101000a81548160ff0219169083151502179055507f39eeda956a5b638cce21d44feb4e3279509fbaf8fb7776431f55f57a0cd215378160405161183f9190613c58565b60405180910390a150565b60008054906101000a900473ffffffffffffffffffffffffffffffffffffffff1673ffffffffffffffffffffffffffffffffffffffff163373ffffffffffffffffffffffffffffffffffffffff16146118d8576040517f08c379a00000000000000000000000000000000000000000000000000000000081526004016118cf906132ad565b60405180910390fd5b6000600180549050905060016040518060800160405280838152602001858152602001848152602001600015158152509080600181540180825580915050600190039060005260206000209060040201600090919091909150600082015181600001556020820151816001019081611950919061390c565b506040820151816002019081611966919061390c565b5060608201518160030160006101000a81548160ff02191690831515021790555050507fde9406a80ec412e1774c566cfc90b0aa3adb56b79530121356ed153cd1cbafd28184846040516119bc93929190613c13565b60405180910390a1505050565b606060056000838152602001908152602001600020805480602002602001604051908101604052809291908181526020016000905b82821015611b8357838290600052602060002090600502016040518060a001604052908160008201548152602001600182018054611a3b90613456565b80601f0160208091040260200160405190810160405280929190818152602001828054611a6790613456565b8015611ab45780601f10611a8957610100808354040283529160200191611ab4565b820191906000526020600020905b815481529060010190602001808311611a9757829003601f168201915b50505050508152602001600282018054611acd90613456565b80601f0160208091040260200160405190810160405280929190818152602001828054611af990613456565b8015611b465780601f10611b1b57610100808354040283529160200191611b46565b820191906000526020600020905b815481529060010190602001808311611b2957829003601f168201915b50505050508152602001600382015481526020016004820160009054906101000a900460ff161515151581525050815260200190600101906119fe565b505050509050919050565b6004818051602081018201805184825260208301602085012081835280955050505050506000915054906101000a900460ff1681565b60056020528160005260406000208181548110611be057600080fd5b906000526020600020906005020160009150915050806000015490806001018054611c0a90613456565b80601f0160208091040260200160405190810160405280929190818152602001828054611c3690613456565b8015611c835780601f10611c5857610100808354040283529160200191611c83565b820191906000526020600020905b815481529060010190602001808311611c6657829003601f168201915b505050505090806002018054611c9890613456565b80601f0160208091040260200160405190810160405280929190818152602001828054611cc490613456565b8015611d115780601f10611ce657610100808354040283529160200191611d11565b820191906000526020600020905b815481529060010190602001808311611cf457829003601f168201915b5050505050908060030154908060040160009054906101000a900460ff16905085565b60008054906101000a900473ffffffffffffffffffffffffffffffffffffffff1673ffffffffffffffffffffffffffffffffffffffff163373ffffffffffffffffffffffffffffffffffffffff1614611dc2576040517f08c379a0000000000000000000000000000000000000000000000000000000008152600401611db9906132ad565b60405180910390fd5b600482604051611dd29190613375565b908152602001604051809103902060009054906101000a900460ff16611e2d576040517f08c379a0000000000000000000000000000000000000000000000000000000008152600401611e2490613bd1565b60405180910390fd5b60005b600380549050811015611f0857828051906020012060038281548110611e5957611e586133f8565b5b9060005260206000209060030201600101604051611e77919061352a565b604051809103902003611ef5578160038281548110611e9957611e986133f8565b5b90600052602060002090600302016000019081611eb6919061390c565b507f5c19fc48310bc712cd7fb6384ba4c8936bf9bc431414bf4c82e08e8e162f342f8383604051611ee8929190613c73565b60405180910390a1611f08565b8080611f00906135a0565b915050611e30565b505050565b60606001805480602002602001604051908101604052809291908181526020016000905b828210156120ac578382906000526020600020906004020160405180608001604052908160008201548152602001600182018054611f6e90613456565b80601f0160208091040260200160405190810160405280929190818152602001828054611f9a90613456565b8015611fe75780601f10611fbc57610100808354040283529160200191611fe7565b820191906000526020600020905b815481529060010190602001808311611fca57829003601f168201915b5050505050815260200160028201805461200090613456565b80601f016020809104026020016040519081016040528092919081815260200182805461202c90613456565b80156120795780601f1061204e57610100808354040283529160200191612079565b820191906000526020600020905b81548152906001019060200180831161205c57829003601f168201915b505050505081526020016003820160009054906101000a900460ff16151515158152505081526020019060010190611f31565b50505050905090565b600381815481106120c557600080fd5b90600052602060002090600302016000915090508060000180546120e890613456565b80601f016020809104026020016040519081016040528092919081815260200182805461211490613456565b80156121615780601f1061213657610100808354040283529160200191612161565b820191906000526020600020905b81548152906001019060200180831161214457829003601f168201915b50505050509080600101805461217690613456565b80601f01602080910402602001604051908101604052809291908181526020018280546121a290613456565b80156121ef5780601f106121c4576101008083540402835291602001916121ef565b820191906000526020600020905b8154815290600101906020018083116121d257829003601f168201915b5050505050908060020160009054906101000a900460ff16908060020160019054906101000a900460ff16905084565b60008054906101000a900473ffffffffffffffffffffffffffffffffffffffff1673ffffffffffffffffffffffffffffffffffffffff163373ffffffffffffffffffffffffffffffffffffffff16146122ad576040517f08c379a00000000000000000000000000000000000000000000000000000000081526004016122a4906132ad565b60405180910390fd5b60028054905081106122f4576040517f08c379a00000000000000000000000000000000000000000000000000000000081526004016122eb90613319565b60405180910390fd5b60016002828154811061230a576123096133f8565b5b906000526020600020906005020160030160016101000a81548160ff0219169083151502179055507f17bee17f9a81c063665248d2e3a768f3307f76864dc54aefe17c8c3edafa350e816040516123619190613c58565b60405180910390a150565b60008054906101000a900473ffffffffffffffffffffffffffffffffffffffff1673ffffffffffffffffffffffffffffffffffffffff163373ffffffffffffffffffffffffffffffffffffffff16146123fa576040517f08c379a00000000000000000000000000000000000000000000000000000000081526004016123f1906132ad565b60405180910390fd5b60048160405161240a9190613375565b908152602001604051809103902060009054906101000a900460ff1615612466576040517f08c379a000000000000000000000000000000000000000000000000000000000815260040161245d90613cf6565b60405180910390fd5b6003604051806080016040528084815260200183815260200160011515815260200160001515815250908060018154018082558091505060019003906000526020600020906003020160009091909190915060008201518160000190816124cd919061390c565b5060208201518160010190816124e3919061390c565b5060408201518160020160006101000a81548160ff02191690831515021790555060608201518160020160016101000a81548160ff021916908315150217905550505060016004826040516125389190613375565b908152602001604051809103902060006101000a81548160ff0219169083151502179055507fcd178f088a063a6836a47e704c2450ec7339d32c39e0d33622b107ad86d59b54828260405161258e929190613c73565b60405180910390a15050565b6000604051905090565b600080fd5b600080fd5b6000819050919050565b6125c1816125ae565b81146125cc57600080fd5b50565b6000813590506125de816125b8565b92915050565b600080fd5b600080fd5b6000601f19601f8301169050919050565b7f4e487b7100000000000000000000000000000000000000000000000000000000600052604160045260246000fd5b612637826125ee565b810181811067ffffffffffffffff82111715612656576126556125ff565b5b80604052505050565b600061266961259a565b9050612675828261262e565b919050565b600067ffffffffffffffff821115612695576126946125ff565b5b61269e826125ee565b9050602081019050919050565b82818337600083830152505050565b60006126cd6126c88461267a565b61265f565b9050828152602081018484840111156126e9576126e86125e9565b5b6126f48482856126ab565b509392505050565b600082601f830112612711576127106125e4565b5b81356127218482602086016126ba565b91505092915050565b60008060408385031215612741576127406125a4565b5b600061274f858286016125cf565b925050602083013567ffffffffffffffff8111156127705761276f6125a9565b5b61277c858286016126fc565b9150509250929050565b60008115159050919050565b61279b81612786565b82525050565b60006020820190506127b66000830184612792565b92915050565b6000806000606084860312156127d5576127d46125a4565b5b60006127e3868287016125cf565b935050602084013567ffffffffffffffff811115612804576128036125a9565b5b612810868287016126fc565b925050604084013567ffffffffffffffff811115612831576128306125a9565b5b61283d868287016126fc565b9150509250925092565b61285081612786565b811461285b57600080fd5b50565b60008135905061286d81612847565b92915050565b60008060006060848603121561288c5761288b6125a4565b5b600061289a868287016125cf565b935050602084013567ffffffffffffffff8111156128bb576128ba6125a9565b5b6128c7868287016126fc565b92505060406128d88682870161285e565b9150509250925092565b600081519050919050565b600082825260208201905092915050565b6000819050602082019050919050565b612917816125ae565b82525050565b600081519050919050565b600082825260208201905092915050565b60005b8381101561295757808201518184015260208101905061293c565b60008484015250505050565b600061296e8261291d565b6129788185612928565b9350612988818560208601612939565b612991816125ee565b840191505092915050565b6129a581612786565b82525050565b600060c0830160008301516129c3600086018261290e565b5060208301516129d6602086018261290e565b50604083015184820360408601526129ee8282612963565b9150506060830151612a03606086018261299c565b506080830151612a16608086018261299c565b5060a0830151612a2960a086018261290e565b508091505092915050565b6000612a4083836129ab565b905092915050565b6000602082019050919050565b6000612a60826128e2565b612a6a81856128ed565b935083602082028501612a7c856128fe565b8060005b85811015612ab85784840389528151612a998582612a34565b9450612aa483612a48565b925060208a01995050600181019050612a80565b50829750879550505050505092915050565b60006020820190508181036000830152612ae48184612a55565b905092915050565b600060208284031215612b0257612b016125a4565b5b6000612b10848285016125cf565b91505092915050565b612b22816125ae565b82525050565b600082825260208201905092915050565b6000612b448261291d565b612b4e8185612b28565b9350612b5e818560208601612939565b612b67816125ee565b840191505092915050565b600060c082019050612b876000830189612b19565b612b946020830188612b19565b8181036040830152612ba68187612b39565b9050612bb56060830186612792565b612bc26080830185612792565b612bcf60a0830184612b19565b979650505050505050565b600060208284031215612bf057612bef6125a4565b5b600082013567ffffffffffffffff811115612c0e57612c0d6125a9565b5b612c1a848285016126fc565b91505092915050565b600073ffffffffffffffffffffffffffffffffffffffff82169050919050565b6000612c4e82612c23565b9050919050565b612c5e81612c43565b82525050565b6000602082019050612c796000830184612c55565b92915050565b600081519050919050565b600082825260208201905092915050565b6000819050602082019050919050565b60006080830160008301518482036000860152612cc88282612963565b91505060208301518482036020860152612ce28282612963565b9150506040830151612cf7604086018261299c565b506060830151612d0a606086018261299c565b508091505092915050565b6000612d218383612cab565b905092915050565b6000602082019050919050565b6000612d4182612c7f565b612d4b8185612c8a565b935083602082028501612d5d85612c9b565b8060005b85811015612d995784840389528151612d7a8582612d15565b9450612d8583612d29565b925060208a01995050600181019050612d61565b50829750879550505050505092915050565b60006020820190508181036000830152612dc58184612d36565b905092915050565b6000608082019050612de26000830187612b19565b8181036020830152612df48186612b39565b90508181036040830152612e088185612b39565b9050612e176060830184612792565b95945050505050565b60008060408385031215612e3757612e366125a4565b5b600083013567ffffffffffffffff811115612e5557612e546125a9565b5b612e61858286016126fc565b925050602083013567ffffffffffffffff811115612e8257612e816125a9565b5b612e8e858286016126fc565b9150509250929050565b600081519050919050565b600082825260208201905092915050565b6000819050602082019050919050565b600060a083016000830151612edc600086018261290e565b5060208301518482036020860152612ef48282612963565b91505060408301518482036040860152612f0e8282612963565b9150506060830151612f23606086018261290e565b506080830151612f36608086018261299c565b508091505092915050565b6000612f4d8383612ec4565b905092915050565b6000602082019050919050565b6000612f6d82612e98565b612f778185612ea3565b935083602082028501612f8985612eb4565b8060005b85811015612fc55784840389528151612fa68582612f41565b9450612fb183612f55565b925060208a01995050600181019050612f8d565b50829750879550505050505092915050565b60006020820190508181036000830152612ff18184612f62565b905092915050565b600080604083850312156130105761300f6125a4565b5b600061301e858286016125cf565b925050602061302f858286016125cf565b9150509250929050565b600060a08201905061304e6000830188612b19565b81810360208301526130608187612b39565b905081810360408301526130748186612b39565b90506130836060830185612b19565b6130906080830184612792565b9695505050505050565b600081519050919050565b600082825260208201905092915050565b6000819050602082019050919050565b60006080830160008301516130de600086018261290e565b50602083015184820360208601526130f68282612963565b915050604083015184820360408601526131108282612963565b9150506060830151613125606086018261299c565b508091505092915050565b600061313c83836130c6565b905092915050565b6000602082019050919050565b600061315c8261309a565b61316681856130a5565b935083602082028501613178856130b6565b8060005b858110156131b457848403895281516131958582613130565b94506131a083613144565b925060208a0199505060018101905061317c565b50829750879550505050505092915050565b600060208201905081810360008301526131e08184613151565b905092915050565b600060808201905081810360008301526132028187612b39565b905081810360208301526132168186612b39565b90506132256040830185612792565b6132326060830184612792565b95945050505050565b7f436869206769616e67207669656e206d6f692064756f6320746875632068696560008201527f6e207468616f20746163206e6179000000000000000000000000000000000000602082015250565b6000613297602e83612b28565b91506132a28261323b565b604082019050919050565b600060208201905081810360008301526132c68161328a565b9050919050565b7f42756f6920686f63206b686f6e6720746f6e2074616900000000000000000000600082015250565b6000613303601683612b28565b915061330e826132cd565b602082019050919050565b60006020820190508181036000830152613332816132f6565b9050919050565b600081905092915050565b600061334f8261291d565b6133598185613339565b9350613369818560208601612939565b80840191505092915050565b60006133818284613344565b915081905092915050565b7f53696e68207669656e206e61792063687561206469656d2064616e6800000000600082015250565b60006133c2601c83612b28565b91506133cd8261338c565b602082019050919050565b600060208201905081810360008301526133f1816133b5565b9050919050565b7f4e487b7100000000000000000000000000000000000000000000000000000000600052603260045260246000fd5b7f4e487b7100000000000000000000000000000000000000000000000000000000600052602260045260246000fd5b6000600282049050600182168061346e57607f821691505b60208210810361348157613480613427565b5b50919050565b600081905092915050565b60008190508160005260206000209050919050565b600081546134b481613456565b6134be8186613487565b945060018216600081146134d957600181146134ee57613521565b60ff1983168652811515820286019350613521565b6134f785613492565b60005b83811015613519578154818901526001820191506020810190506134fa565b838801955050505b50505092915050565b600061353682846134a7565b915081905092915050565b60006040820190506135566000830185612b19565b81810360208301526135688184612b39565b90509392505050565b7f4e487b7100000000000000000000000000000000000000000000000000000000600052601160045260246000fd5b60006135ab826125ae565b91507fffffffffffffffffffffffffffffffffffffffffffffffffffffffffffffffff82036135dd576135dc613571565b5b600182019050919050565b7f42756f6920686f6320646120626920786f610000000000000000000000000000600082015250565b600061361e601283612b28565b9150613629826135e8565b602082019050919050565b6000602082019050818103600083015261364d81613611565b9050919050565b7f42756f6920686f63206461206b65742074687563000000000000000000000000600082015250565b600061368a601483612b28565b915061369582613654565b602082019050919050565b600060208201905081810360008301526136b98161367d565b9050919050565b7f53696e68207669656e206e6179206461206469656d2064616e6820726f692100600082015250565b60006136f6601f83612b28565b9150613701826136c0565b602082019050919050565b60006020820190508181036000830152613725816136e9565b9050919050565b6000613737826125ae565b9150613742836125ae565b925082820190508082111561375a57613759613571565b5b92915050565b60008190508160005260206000209050919050565b60006020601f8301049050919050565b600082821b905092915050565b6000600883026137c27fffffffffffffffffffffffffffffffffffffffffffffffffffffffffffffffff82613785565b6137cc8683613785565b95508019841693508086168417925050509392505050565b6000819050919050565b60006138096138046137ff846125ae565b6137e4565b6125ae565b9050919050565b6000819050919050565b613823836137ee565b61383761382f82613810565b848454613792565b825550505050565b600090565b61384c61383f565b61385781848461381a565b505050565b5b8181101561387b57613870600082613844565b60018101905061385d565b5050565b601f8211156138c05761389181613760565b61389a84613775565b810160208510156138a9578190505b6138bd6138b585613775565b83018261385c565b50505b505050565b600082821c905092915050565b60006138e3600019846008026138c5565b1980831691505092915050565b60006138fc83836138d2565b9150826002028217905092915050565b6139158261291d565b67ffffffffffffffff81111561392e5761392d6125ff565b5b6139388254613456565b61394382828561387f565b600060209050601f8311600181146139765760008415613964578287015190505b61396e85826138f0565b8655506139d6565b601f19841661398486613760565b60005b828110156139ac57848901518255600182019150602085019450602081019050613987565b868310156139c957848901516139c5601f8916826138d2565b8355505b6001600288020188555050505b505050505050565b60006080820190506139f36000830187612b19565b8181036020830152613a058186612b39565b90508181036040830152613a198185612b39565b9050613a286060830184612b19565b95945050505050565b6000606082019050613a466000830186612b19565b8181036020830152613a588185612b39565b9050613a676040830184612792565b949350505050565b7f4b686f6120686f63206b686f6e6720746f6e2074616900000000000000000000600082015250565b6000613aa5601683612b28565b9150613ab082613a6f565b602082019050919050565b60006020820190508181036000830152613ad481613a98565b9050919050565b7f4b686f6120686f6320646120626920786f610000000000000000000000000000600082015250565b6000613b11601283612b28565b9150613b1c82613adb565b602082019050919050565b60006020820190508181036000830152613b4081613b04565b9050919050565b6000606082019050613b5c6000830186612b19565b613b696020830185612b19565b8181036040830152613b7b8184612b39565b9050949350505050565b7f53696e68207669656e206b686f6e6720746f6e20746169000000000000000000600082015250565b6000613bbb601783612b28565b9150613bc682613b85565b602082019050919050565b60006020820190508181036000830152613bea81613bae565b9050919050565b60006020820190508181036000830152613c0b8184612b39565b905092915050565b6000606082019050613c286000830186612b19565b8181036020830152613c3a8185612b39565b90508181036040830152613c4e8184612b39565b9050949350505050565b6000602082019050613c6d6000830184612b19565b92915050565b60006040820190508181036000830152613c8d8185612b39565b90508181036020830152613ca18184612b39565b90509392505050565b7f53696e68207669656e206e617920646120746f6e207461690000000000000000600082015250565b6000613ce0601883612b28565b9150613ceb82613caa565b602082019050919050565b60006020820190508181036000830152613d0f81613cd3565b905091905056fea2646970667358221220a3a1b2825ab45e5a105fe61f5d57907b0b8d85f804e8ec18d0108ff1cac1e29464736f6c63430008140033",
  "linkReferences": {},
  "deployedLinkReferences": {}
}