{
  "_format": "hh-sol-artifact-1",
  "contractName": "StudentAttendance",
  "sourceName": "contracts/StudentAttendance.sol",
  "abi": [
    {
      "inputs": [],
      "stateMutability": "nonpayable",
      "type": "constructor"
    },
    {
      "anonymous": false,
      "inputs": [
        {
          "indexed": false,
          "internalType": "uint256",
          "name": "sessionId",
          "type": "uint256"
        },
        {
          "indexed": false,
          "internalType": "string",
          "name": "name",
          "type": "string"
        },
        {
          "indexed": false,
          "internalType": "string",
          "name": "studentCode",
          "type": "string"
        },
        {
          "indexed": false,
          "internalType": "uint256",
          "name": "timestamp",
          "type": "uint256"
        }
      ],
      "name": "AttendanceMarked",
      "type": "event"
    },
    {
      "anonymous": false,
      "inputs": [
        {
          "indexed": false,
          "internalType": "uint256",
          "name": "id",
          "type": "uint256"
        },
        {
          "indexed": false,
          "internalType": "string",
          "name": "name",
          "type": "string"
        },
        {
          "indexed": false,
          "internalType": "uint256",
          "name": "timestamp",
          "type": "uint256"
        }
      ],
      "name": "SessionCreated",
      "type": "event"
    },
    {
      "inputs": [
        {
          "internalType": "uint256",
          "name": "_sessionId",
          "type": "uint256"
        }
      ],
      "name": "closeSession",
      "outputs": [],
      "stateMutability": "nonpayable",
      "type": "function"
    },
    {
      "inputs": [
        {
          "internalType": "string",
          "name": "_name",
          "type": "string"
        }
      ],
      "name": "createSession",
      "outputs": [],
      "stateMutability": "nonpayable",
      "type": "function"
    },
    {
      "inputs": [],
      "name": "getSessions",
      "outputs": [
        {
          "components": [
            {
              "internalType": "uint256",
              "name": "id",
              "type": "uint256"
            },
            {
              "internalType": "string",
              "name": "name",
              "type": "string"
            },
            {
              "internalType": "bool",
              "name": "isOpen",
              "type": "bool"
            },
            {
              "internalType": "uint256",
              "name": "createdAt",
              "type": "uint256"
            }
          ],
          "internalType": "struct StudentAttendance.Session[]",
          "name": "",
          "type": "tuple[]"
        }
      ],
      "stateMutability": "view",
      "type": "function"
    },
    {
      "inputs": [
        {
          "internalType": "uint256",
          "name": "_sessionId",
          "type": "uint256"
        }
      ],
      "name": "getStudentsBySession",
      "outputs": [
        {
          "components": [
            {
              "internalType": "uint256",
              "name": "id",
              "type": "uint256"
            },
            {
              "internalType": "string",
              "name": "name",
              "type": "string"
            },
            {
              "internalType": "string",
              "name": "studentCode",
              "type": "string"
            },
            {
              "internalType": "uint256",
              "name": "timestamp",
              "type": "uint256"
            }
          ],
          "internalType": "struct StudentAttendance.Student[]",
          "name": "",
          "type": "tuple[]"
        }
      ],
      "stateMutability": "view",
      "type": "function"
    },
    {
      "inputs": [
        {
          "internalType": "uint256",
          "name": "",
          "type": "uint256"
        },
        {
          "internalType": "string",
          "name": "",
          "type": "string"
        }
      ],
      "name": "hasAttended",
      "outputs": [
        {
          "internalType": "bool",
          "name": "",
          "type": "bool"
        }
      ],
      "stateMutability": "view",
      "type": "function"
    },
    {
      "inputs": [
        {
          "internalType": "uint256",
          "name": "_sessionId",
          "type": "uint256"
        },
        {
          "internalType": "string",
          "name": "_name",
          "type": "string"
        },
        {
          "internalType": "string",
          "name": "_studentCode",
          "type": "string"
        }
      ],
      "name": "markAttendance",
      "outputs": [],
      "stateMutability": "nonpayable",
      "type": "function"
    },
    {
      "inputs": [],
      "name": "owner",
      "outputs": [
        {
          "internalType": "address",
          "name": "",
          "type": "address"
        }
      ],
      "stateMutability": "view",
      "type": "function"
    },
    {
      "inputs": [
        {
          "internalType": "uint256",
          "name": "",
          "type": "uint256"
        },
        {
          "internalType": "uint256",
          "name": "",
          "type": "uint256"
        }
      ],
      "name": "sessionStudents",
      "outputs": [
        {
          "internalType": "uint256",
          "name": "id",
          "type": "uint256"
        },
        {
          "internalType": "string",
          "name": "name",
          "type": "string"
        },
        {
          "internalType": "string",
          "name": "studentCode",
          "type": "string"
        },
        {
          "internalType": "uint256",
          "name": "timestamp",
          "type": "uint256"
        }
      ],
      "stateMutability": "view",
      "type": "function"
    },
    {
      "inputs": [
        {
          "internalType": "uint256",
          "name": "",
          "type": "uint256"
        }
      ],
      "name": "sessions",
      "outputs": [
        {
          "internalType": "uint256",
          "name": "id",
          "type": "uint256"
        },
        {
          "internalType": "string",
          "name": "name",
          "type": "string"
        },
        {
          "internalType": "bool",
          "name": "isOpen",
          "type": "bool"
        },
        {
          "internalType": "uint256",
          "name": "createdAt",
          "type": "uint256"
        }
      ],
      "stateMutability": "view",
      "type": "function"
    }
  ],
  "bytecode": "0x608060405234801561001057600080fd5b50336000806101000a81548173ffffffffffffffffffffffffffffffffffffffff021916908373ffffffffffffffffffffffffffffffffffffffff1602179055506119f6806100606000396000f3fe608060405234801561001057600080fd5b50600436106100935760003560e01c806383c4b7a31161006657806383c4b7a31461011e5780638da5cb5b14610151578063a3bfdf471461016f578063acba61711461018b578063b4655704146101bb57610093565b806311dd74e71461009857806312abb5bb146100c85780633ce6a65f146100e457806361503e4514610100575b600080fd5b6100b260048036038101906100ad9190610d6a565b6101ee565b6040516100bf9190610de1565b60405180910390f35b6100e260048036038101906100dd9190610dfc565b610233565b005b6100fe60048036038101906100f99190610e45565b610317565b005b6101086105a4565b6040516101159190611092565b60405180910390f35b610138600480360381019061013391906110b4565b6106c4565b604051610148949392919061113a565b60405180910390f35b610159610799565b60405161016691906111c7565b60405180910390f35b610189600480360381019061018491906110b4565b6107bd565b005b6101a560048036038101906101a091906110b4565b6108d3565b6040516101b2919061130e565b60405180910390f35b6101d560048036038101906101d09190611330565b610a7d565b6040516101e59493929190611370565b60405180910390f35b6003602052816000526040600020818051602081018201805184825260208301602085012081835280955050505050506000915091509054906101000a900460ff1681565b60006001805490509050600160405180608001604052808381526020018481526020016001151581526020014281525090806001815401808255809150506001900390600052602060002090600402016000909190919091506000820151816000015560208201518160010190816102ab91906115cf565b5060408201518160020160006101000a81548160ff0219169083151502179055506060820151816003015550507fbaaf3e7e7220f3f189df779cc40f886caf966b5143cbe122de9181a26a68152081834260405161030b939291906116a1565b60405180910390a15050565b600180549050831061035e576040517f08c379a00000000000000000000000000000000000000000000000000000000081526004016103559061172b565b60405180910390fd5b600183815481106103725761037161174b565b5b906000526020600020906004020160020160009054906101000a900460ff166103d0576040517f08c379a00000000000000000000000000000000000000000000000000000000081526004016103c7906117c6565b60405180910390fd5b60036000848152602001908152602001600020816040516103f19190611822565b908152602001604051809103902060009054906101000a900460ff161561044d576040517f08c379a0000000000000000000000000000000000000000000000000000000008152600401610444906118ab565b60405180910390fd5b60006001600260008681526020019081526020016000208054905061047291906118fa565b905060004290506002600086815260200190815260200160002060405180608001604052808481526020018681526020018581526020018381525090806001815401808255809150506001900390600052602060002090600402016000909190919091506000820151816000015560208201518160010190816104f591906115cf565b50604082015181600201908161050b91906115cf565b506060820151816003015550506001600360008781526020019081526020016000208460405161053b9190611822565b908152602001604051809103902060006101000a81548160ff0219169083151502179055507f40e7feb3649056fc678fbce00a45ae03946c4a42f0d36e8a3e02dc4bac3a9e84858585846040516105959493929190611370565b60405180910390a15050505050565b60606001805480602002602001604051908101604052809291908181526020016000905b828210156106bb578382906000526020600020906004020160405180608001604052908160008201548152602001600182018054610605906113f2565b80601f0160208091040260200160405190810160405280929190818152602001828054610631906113f2565b801561067e5780601f106106535761010080835404028352916020019161067e565b820191906000526020600020905b81548152906001019060200180831161066157829003601f168201915b505050505081526020016002820160009054906101000a900460ff16151515158152602001600382015481525050815260200190600101906105c8565b50505050905090565b600181815481106106d457600080fd5b90600052602060002090600402016000915090508060000154908060010180546106fd906113f2565b80601f0160208091040260200160405190810160405280929190818152602001828054610729906113f2565b80156107765780601f1061074b57610100808354040283529160200191610776565b820191906000526020600020905b81548152906001019060200180831161075957829003601f168201915b5050505050908060020160009054906101000a900460ff16908060030154905084565b60008054906101000a900473ffffffffffffffffffffffffffffffffffffffff1681565b60008054906101000a900473ffffffffffffffffffffffffffffffffffffffff1673ffffffffffffffffffffffffffffffffffffffff163373ffffffffffffffffffffffffffffffffffffffff161461084b576040517f08c379a0000000000000000000000000000000000000000000000000000000008152600401610842906119a0565b60405180910390fd5b6001805490508110610892576040517f08c379a00000000000000000000000000000000000000000000000000000000081526004016108899061172b565b60405180910390fd5b6000600182815481106108a8576108a761174b565b5b906000526020600020906004020160020160006101000a81548160ff02191690831515021790555050565b606060026000838152602001908152602001600020805480602002602001604051908101604052809291908181526020016000905b82821015610a72578382906000526020600020906004020160405180608001604052908160008201548152602001600182018054610945906113f2565b80601f0160208091040260200160405190810160405280929190818152602001828054610971906113f2565b80156109be5780601f10610993576101008083540402835291602001916109be565b820191906000526020600020905b8154815290600101906020018083116109a157829003601f168201915b505050505081526020016002820180546109d7906113f2565b80601f0160208091040260200160405190810160405280929190818152602001828054610a03906113f2565b8015610a505780601f10610a2557610100808354040283529160200191610a50565b820191906000526020600020905b815481529060010190602001808311610a3357829003601f168201915b5050505050815260200160038201548152505081526020019060010190610908565b505050509050919050565b60026020528160005260406000208181548110610a9957600080fd5b906000526020600020906004020160009150915050806000015490806001018054610ac3906113f2565b80601f0160208091040260200160405190810160405280929190818152602001828054610aef906113f2565b8015610b3c5780601f10610b1157610100808354040283529160200191610b3c565b820191906000526020600020905b815481529060010190602001808311610b1f57829003601f168201915b505050505090806002018054610b51906113f2565b80601f0160208091040260200160405190810160405280929190818152602001828054610b7d906113f2565b8015610bca5780601f10610b9f57610100808354040283529160200191610bca565b820191906000526020600020905b815481529060010190602001808311610bad57829003601f168201915b5050505050908060030154905084565b6000604051905090565b600080fd5b600080fd5b6000819050919050565b610c0181610bee565b8114610c0c57600080fd5b50565b600081359050610c1e81610bf8565b92915050565b600080fd5b600080fd5b6000601f19601f8301169050919050565b7f4e487b7100000000000000000000000000000000000000000000000000000000600052604160045260246000fd5b610c7782610c2e565b810181811067ffffffffffffffff82111715610c9657610c95610c3f565b5b80604052505050565b6000610ca9610bda565b9050610cb58282610c6e565b919050565b600067ffffffffffffffff821115610cd557610cd4610c3f565b5b610cde82610c2e565b9050602081019050919050565b82818337600083830152505050565b6000610d0d610d0884610cba565b610c9f565b905082815260208101848484011115610d2957610d28610c29565b5b610d34848285610ceb565b509392505050565b600082601f830112610d5157610d50610c24565b5b8135610d61848260208601610cfa565b91505092915050565b60008060408385031215610d8157610d80610be4565b5b6000610d8f85828601610c0f565b925050602083013567ffffffffffffffff811115610db057610daf610be9565b5b610dbc85828601610d3c565b9150509250929050565b60008115159050919050565b610ddb81610dc6565b82525050565b6000602082019050610df66000830184610dd2565b92915050565b600060208284031215610e1257610e11610be4565b5b600082013567ffffffffffffffff811115610e3057610e2f610be9565b5b610e3c84828501610d3c565b91505092915050565b600080600060608486031215610e5e57610e5d610be4565b5b6000610e6c86828701610c0f565b935050602084013567ffffffffffffffff811115610e8d57610e8c610be9565b5b610e9986828701610d3c565b925050604084013567ffffffffffffffff811115610eba57610eb9610be9565b5b610ec686828701610d3c565b9150509250925092565b600081519050919050565b600082825260208201905092915050565b6000819050602082019050919050565b610f0581610bee565b82525050565b600081519050919050565b600082825260208201905092915050565b60005b83811015610f45578082015181840152602081019050610f2a565b60008484015250505050565b6000610f5c82610f0b565b610f668185610f16565b9350610f76818560208601610f27565b610f7f81610c2e565b840191505092915050565b610f9381610dc6565b82525050565b6000608083016000830151610fb16000860182610efc565b5060208301518482036020860152610fc98282610f51565b9150506040830151610fde6040860182610f8a565b506060830151610ff16060860182610efc565b508091505092915050565b60006110088383610f99565b905092915050565b6000602082019050919050565b600061102882610ed0565b6110328185610edb565b93508360208202850161104485610eec565b8060005b8581101561108057848403895281516110618582610ffc565b945061106c83611010565b925060208a01995050600181019050611048565b50829750879550505050505092915050565b600060208201905081810360008301526110ac818461101d565b905092915050565b6000602082840312156110ca576110c9610be4565b5b60006110d884828501610c0f565b91505092915050565b6110ea81610bee565b82525050565b600082825260208201905092915050565b600061110c82610f0b565b61111681856110f0565b9350611126818560208601610f27565b61112f81610c2e565b840191505092915050565b600060808201905061114f60008301876110e1565b81810360208301526111618186611101565b90506111706040830185610dd2565b61117d60608301846110e1565b95945050505050565b600073ffffffffffffffffffffffffffffffffffffffff82169050919050565b60006111b182611186565b9050919050565b6111c1816111a6565b82525050565b60006020820190506111dc60008301846111b8565b92915050565b600081519050919050565b600082825260208201905092915050565b6000819050602082019050919050565b60006080830160008301516112266000860182610efc565b506020830151848203602086015261123e8282610f51565b915050604083015184820360408601526112588282610f51565b915050606083015161126d6060860182610efc565b508091505092915050565b6000611284838361120e565b905092915050565b6000602082019050919050565b60006112a4826111e2565b6112ae81856111ed565b9350836020820285016112c0856111fe565b8060005b858110156112fc57848403895281516112dd8582611278565b94506112e88361128c565b925060208a019950506001810190506112c4565b50829750879550505050505092915050565b600060208201905081810360008301526113288184611299565b905092915050565b6000806040838503121561134757611346610be4565b5b600061135585828601610c0f565b925050602061136685828601610c0f565b9150509250929050565b600060808201905061138560008301876110e1565b81810360208301526113978186611101565b905081810360408301526113ab8185611101565b90506113ba60608301846110e1565b95945050505050565b7f4e487b7100000000000000000000000000000000000000000000000000000000600052602260045260246000fd5b6000600282049050600182168061140a57607f821691505b60208210810361141d5761141c6113c3565b5b50919050565b60008190508160005260206000209050919050565b60006020601f8301049050919050565b600082821b905092915050565b6000600883026114857fffffffffffffffffffffffffffffffffffffffffffffffffffffffffffffffff82611448565b61148f8683611448565b95508019841693508086168417925050509392505050565b6000819050919050565b60006114cc6114c76114c284610bee565b6114a7565b610bee565b9050919050565b6000819050919050565b6114e6836114b1565b6114fa6114f2826114d3565b848454611455565b825550505050565b600090565b61150f611502565b61151a8184846114dd565b505050565b5b8181101561153e57611533600082611507565b600181019050611520565b5050565b601f8211156115835761155481611423565b61155d84611438565b8101602085101561156c578190505b61158061157885611438565b83018261151f565b50505b505050565b600082821c905092915050565b60006115a660001984600802611588565b1980831691505092915050565b60006115bf8383611595565b9150826002028217905092915050565b6115d882610f0b565b67ffffffffffffffff8111156115f1576115f0610c3f565b5b6115fb82546113f2565b611606828285611542565b600060209050601f8311600181146116395760008415611627578287015190505b61163185826115b3565b865550611699565b601f19841661164786611423565b60005b8281101561166f5784890151825560018201915060208501945060208101905061164a565b8683101561168c5784890151611688601f891682611595565b8355505b6001600288020188555050505b505050505050565b60006060820190506116b660008301866110e1565b81810360208301526116c88185611101565b90506116d760408301846110e1565b949350505050565b7f42756f6920686f63206b686f6e6720746f6e2074616900000000000000000000600082015250565b60006117156016836110f0565b9150611720826116df565b602082019050919050565b6000602082019050818103600083015261174481611708565b9050919050565b7f4e487b7100000000000000000000000000000000000000000000000000000000600052603260045260246000fd5b7f42756f6920686f63206461206b65742074687563000000000000000000000000600082015250565b60006117b06014836110f0565b91506117bb8261177a565b602082019050919050565b600060208201905081810360008301526117df816117a3565b9050919050565b600081905092915050565b60006117fc82610f0b565b61180681856117e6565b9350611816818560208601610f27565b80840191505092915050565b600061182e82846117f1565b915081905092915050565b7f53696e68207669656e206e6179206461206469656d2064616e682074726f6e6760008201527f2062756f69206e617920726f6921000000000000000000000000000000000000602082015250565b6000611895602e836110f0565b91506118a082611839565b604082019050919050565b600060208201905081810360008301526118c481611888565b9050919050565b7f4e487b7100000000000000000000000000000000000000000000000000000000600052601160045260246000fd5b600061190582610bee565b915061191083610bee565b9250828201905080821115611928576119276118cb565b5b92915050565b7f436869206769616e67207669656e206d6f692064756f6320746875632068696560008201527f6e207468616f20746163206e6179000000000000000000000000000000000000602082015250565b600061198a602e836110f0565b91506119958261192e565b604082019050919050565b600060208201905081810360008301526119b98161197d565b905091905056fea2646970667358221220e8a2646bef331663d3caa7fa0f34540087e398cb15b611092d086043e1a7205b64736f6c63430008140033",
  "linkReferences": {},
  "deployedLinkReferences": {}
}