{
  "_format": "hh-sol-artifact-1",
  "contractName": "StudentAttendance",
  "sourceName": "contracts/StudentAttendance.sol",
  "abi": [
    {
      "inputs": [],
      "stateMutability": "nonpayable",
      "type": "constructor"
    },
    {
      "anonymous": false,
      "inputs": [
        {
          "indexed": false,
          "internalType": "uint256",
          "name": "sessionId",
          "type": "uint256"
        },
        {
          "indexed": false,
          "internalType": "string",
          "name": "name",
          "type": "string"
        },
        {
          "indexed": false,
          "internalType": "string",
          "name": "studentCode",
          "type": "string"
        },
        {
          "indexed": false,
          "internalType": "uint256",
          "name": "timestamp",
          "type": "uint256"
        }
      ],
      "name": "AttendanceMarked",
      "type": "event"
    },
    {
      "anonymous": false,
      "inputs": [
        {
          "indexed": false,
          "internalType": "uint256",
          "name": "id",
          "type": "uint256"
        },
        {
          "indexed": false,
          "internalType": "string",
          "name": "name",
          "type": "string"
        },
        {
          "indexed": false,
          "internalType": "uint256",
          "name": "timestamp",
          "type": "uint256"
        }
      ],
      "name": "SessionCreated",
      "type": "event"
    },
    {
      "anonymous": false,
      "inputs": [
        {
          "indexed": false,
          "internalType": "uint256",
          "name": "id",
          "type": "uint256"
        }
      ],
      "name": "SessionDeleted",
      "type": "event"
    },
    {
      "anonymous": false,
      "inputs": [
        {
          "indexed": false,
          "internalType": "uint256",
          "name": "id",
          "type": "uint256"
        },
        {
          "indexed": false,
          "internalType": "string",
          "name": "name",
          "type": "string"
        },
        {
          "indexed": false,
          "internalType": "bool",
          "name": "isOpen",
          "type": "bool"
        }
      ],
      "name": "SessionUpdated",
      "type": "event"
    },
    {
      "anonymous": false,
      "inputs": [
        {
          "indexed": false,
          "internalType": "string",
          "name": "name",
          "type": "string"
        },
        {
          "indexed": false,
          "internalType": "string",
          "name": "studentCode",
          "type": "string"
        }
      ],
      "name": "StudentAdded",
      "type": "event"
    },
    {
      "inputs": [
        {
          "internalType": "string",
          "name": "_name",
          "type": "string"
        },
        {
          "internalType": "string",
          "name": "_studentCode",
          "type": "string"
        }
      ],
      "name": "addStudent",
      "outputs": [],
      "stateMutability": "nonpayable",
      "type": "function"
    },
    {
      "inputs": [
        {
          "internalType": "string",
          "name": "_name",
          "type": "string"
        }
      ],
      "name": "createSession",
      "outputs": [],
      "stateMutability": "nonpayable",
      "type": "function"
    },
    {
      "inputs": [
        {
          "internalType": "uint256",
          "name": "_sessionId",
          "type": "uint256"
        }
      ],
      "name": "deleteSession",
      "outputs": [],
      "stateMutability": "nonpayable",
      "type": "function"
    },
    {
      "inputs": [],
      "name": "getMasterStudents",
      "outputs": [
        {
          "components": [
            {
              "internalType": "string",
              "name": "name",
              "type": "string"
            },
            {
              "internalType": "string",
              "name": "studentCode",
              "type": "string"
            },
            {
              "internalType": "bool",
              "name": "exists",
              "type": "bool"
            }
          ],
          "internalType": "struct StudentAttendance.StudentInfo[]",
          "name": "",
          "type": "tuple[]"
        }
      ],
      "stateMutability": "view",
      "type": "function"
    },
    {
      "inputs": [],
      "name": "getSessions",
      "outputs": [
        {
          "components": [
            {
              "internalType": "uint256",
              "name": "id",
              "type": "uint256"
            },
            {
              "internalType": "string",
              "name": "name",
              "type": "string"
            },
            {
              "internalType": "bool",
              "name": "isOpen",
              "type": "bool"
            },
            {
              "internalType": "bool",
              "name": "isHidden",
              "type": "bool"
            },
            {
              "internalType": "uint256",
              "name": "createdAt",
              "type": "uint256"
            }
          ],
          "internalType": "struct StudentAttendance.Session[]",
          "name": "",
          "type": "tuple[]"
        }
      ],
      "stateMutability": "view",
      "type": "function"
    },
    {
      "inputs": [
        {
          "internalType": "uint256",
          "name": "_sessionId",
          "type": "uint256"
        }
      ],
      "name": "getStudentsBySession",
      "outputs": [
        {
          "components": [
            {
              "internalType": "uint256",
              "name": "id",
              "type": "uint256"
            },
            {
              "internalType": "string",
              "name": "name",
              "type": "string"
            },
            {
              "internalType": "string",
              "name": "studentCode",
              "type": "string"
            },
            {
              "internalType": "uint256",
              "name": "timestamp",
              "type": "uint256"
            }
          ],
          "internalType": "struct StudentAttendance.Student[]",
          "name": "",
          "type": "tuple[]"
        }
      ],
      "stateMutability": "view",
      "type": "function"
    },
    {
      "inputs": [
        {
          "internalType": "uint256",
          "name": "",
          "type": "uint256"
        },
        {
          "internalType": "string",
          "name": "",
          "type": "string"
        }
      ],
      "name": "hasAttended",
      "outputs": [
        {
          "internalType": "bool",
          "name": "",
          "type": "bool"
        }
      ],
      "stateMutability": "view",
      "type": "function"
    },
    {
      "inputs": [
        {
          "internalType": "uint256",
          "name": "_sessionId",
          "type": "uint256"
        },
        {
          "internalType": "string",
          "name": "_name",
          "type": "string"
        },
        {
          "internalType": "string",
          "name": "_studentCode",
          "type": "string"
        }
      ],
      "name": "markAttendance",
      "outputs": [],
      "stateMutability": "nonpayable",
      "type": "function"
    },
    {
      "inputs": [
        {
          "internalType": "uint256",
          "name": "",
          "type": "uint256"
        }
      ],
      "name": "masterStudents",
      "outputs": [
        {
          "internalType": "string",
          "name": "name",
          "type": "string"
        },
        {
          "internalType": "string",
          "name": "studentCode",
          "type": "string"
        },
        {
          "internalType": "bool",
          "name": "exists",
          "type": "bool"
        }
      ],
      "stateMutability": "view",
      "type": "function"
    },
    {
      "inputs": [],
      "name": "owner",
      "outputs": [
        {
          "internalType": "address",
          "name": "",
          "type": "address"
        }
      ],
      "stateMutability": "view",
      "type": "function"
    },
    {
      "inputs": [
        {
          "internalType": "uint256",
          "name": "",
          "type": "uint256"
        },
        {
          "internalType": "uint256",
          "name": "",
          "type": "uint256"
        }
      ],
      "name": "sessionStudents",
      "outputs": [
        {
          "internalType": "uint256",
          "name": "id",
          "type": "uint256"
        },
        {
          "internalType": "string",
          "name": "name",
          "type": "string"
        },
        {
          "internalType": "string",
          "name": "studentCode",
          "type": "string"
        },
        {
          "internalType": "uint256",
          "name": "timestamp",
          "type": "uint256"
        }
      ],
      "stateMutability": "view",
      "type": "function"
    },
    {
      "inputs": [
        {
          "internalType": "uint256",
          "name": "",
          "type": "uint256"
        }
      ],
      "name": "sessions",
      "outputs": [
        {
          "internalType": "uint256",
          "name": "id",
          "type": "uint256"
        },
        {
          "internalType": "string",
          "name": "name",
          "type": "string"
        },
        {
          "internalType": "bool",
          "name": "isOpen",
          "type": "bool"
        },
        {
          "internalType": "bool",
          "name": "isHidden",
          "type": "bool"
        },
        {
          "internalType": "uint256",
          "name": "createdAt",
          "type": "uint256"
        }
      ],
      "stateMutability": "view",
      "type": "function"
    },
    {
      "inputs": [
        {
          "internalType": "string",
          "name": "",
          "type": "string"
        }
      ],
      "name": "studentCodeExists",
      "outputs": [
        {
          "internalType": "bool",
          "name": "",
          "type": "bool"
        }
      ],
      "stateMutability": "view",
      "type": "function"
    },
    {
      "inputs": [
        {
          "internalType": "uint256",
          "name": "_sessionId",
          "type": "uint256"
        },
        {
          "internalType": "string",
          "name": "_newName",
          "type": "string"
        },
        {
          "internalType": "bool",
          "name": "_isOpen",
          "type": "bool"
        }
      ],
      "name": "updateSession",
      "outputs": [],
      "stateMutability": "nonpayable",
      "type": "function"
    }
  ],
  "bytecode": "0x608060405234801561001057600080fd5b50336000806101000a81548173ffffffffffffffffffffffffffffffffffffffff021916908373ffffffffffffffffffffffffffffffffffffffff16021790555061274a806100606000396000f3fe608060405234801561001057600080fd5b50600436106100ea5760003560e01c80638fc9385e1161008c578063b465570411610066578063b465570414610261578063d3263b4f14610294578063e2231201146102c6578063e27bb1f7146102e2576100ea565b80638fc9385e146101e3578063acba617114610201578063b0b4ecbd14610231576100ea565b806343543a55116100c857806343543a551461015757806361503e451461017357806383c4b7a3146101915780638da5cb5b146101c5576100ea565b806311dd74e7146100ef57806312abb5bb1461011f5780633ce6a65f1461013b575b600080fd5b610109600480360381019061010491906116a2565b6102fe565b6040516101169190611719565b60405180910390f35b61013960048036038101906101349190611734565b610343565b005b6101556004803603810190610150919061177d565b610450565b005b610171600480360381019061016c9190611834565b610750565b005b61017b610948565b6040516101889190611a78565b60405180910390f35b6101ab60048036038101906101a69190611a9a565b610a83565b6040516101bc959493929190611b20565b60405180910390f35b6101cd610b6b565b6040516101da9190611bbb565b60405180910390f35b6101eb610b8f565b6040516101f89190611cef565b60405180910390f35b61021b60048036038101906102169190611a9a565b610d2d565b6040516102289190611e3d565b60405180910390f35b61024b60048036038101906102469190611734565b610ed7565b6040516102589190611719565b60405180910390f35b61027b60048036038101906102769190611e5f565b610f0d565b60405161028b9493929190611e9f565b60405180910390f35b6102ae60048036038101906102a99190611a9a565b61106a565b6040516102bd93929190611ef2565b60405180910390f35b6102e060048036038101906102db9190611a9a565b6111c1565b005b6102fc60048036038101906102f79190611f37565b61130d565b005b6005602052816000526040600020818051602081018201805184825260208301602085012081835280955050505050506000915091509054906101000a900460ff1681565b6000600180549050905060016040518060a001604052808381526020018481526020016001151581526020016000151581526020014281525090806001815401808255809150506001900390600052602060002090600402016000909190919091506000820151816000015560208201518160010190816103c491906121bb565b5060408201518160020160006101000a81548160ff02191690831515021790555060608201518160020160016101000a81548160ff0219169083151502179055506080820151816003015550507fbaaf3e7e7220f3f189df779cc40f886caf966b5143cbe122de9181a26a6815208183426040516104449392919061228d565b60405180910390a15050565b6001805490508310610497576040517f08c379a000000000000000000000000000000000000000000000000000000000815260040161048e90612317565b60405180910390fd5b600183815481106104ab576104aa612337565b5b906000526020600020906004020160020160019054906101000a900460ff161561050a576040517f08c379a0000000000000000000000000000000000000000000000000000000008152600401610501906123b2565b60405180910390fd5b6001838154811061051e5761051d612337565b5b906000526020600020906004020160020160009054906101000a900460ff1661057c576040517f08c379a00000000000000000000000000000000000000000000000000000000081526004016105739061241e565b60405180910390fd5b600560008481526020019081526020016000208160405161059d919061247a565b908152602001604051809103902060009054906101000a900460ff16156105f9576040517f08c379a00000000000000000000000000000000000000000000000000000000081526004016105f090612503565b60405180910390fd5b60006001600460008681526020019081526020016000208054905061061e9190612552565b905060004290506004600086815260200190815260200160002060405180608001604052808481526020018681526020018581526020018381525090806001815401808255809150506001900390600052602060002090600402016000909190919091506000820151816000015560208201518160010190816106a191906121bb565b5060408201518160020190816106b791906121bb565b50606082015181600301555050600160056000878152602001908152602001600020846040516106e7919061247a565b908152602001604051809103902060006101000a81548160ff0219169083151502179055507f40e7feb3649056fc678fbce00a45ae03946c4a42f0d36e8a3e02dc4bac3a9e84858585846040516107419493929190611e9f565b60405180910390a15050505050565b60008054906101000a900473ffffffffffffffffffffffffffffffffffffffff1673ffffffffffffffffffffffffffffffffffffffff163373ffffffffffffffffffffffffffffffffffffffff16146107de576040517f08c379a00000000000000000000000000000000000000000000000000000000081526004016107d5906125f8565b60405180910390fd5b6001805490508310610825576040517f08c379a000000000000000000000000000000000000000000000000000000000815260040161081c90612317565b60405180910390fd5b6001838154811061083957610838612337565b5b906000526020600020906004020160020160019054906101000a900460ff1615610898576040517f08c379a000000000000000000000000000000000000000000000000000000000815260040161088f906123b2565b60405180910390fd5b81600184815481106108ad576108ac612337565b5b906000526020600020906004020160010190816108ca91906121bb565b5080600184815481106108e0576108df612337565b5b906000526020600020906004020160020160006101000a81548160ff0219169083151502179055507fa3af963779b1a4a9bcbc33886dae5984801b06b7301f911dfec82f7374c2f02e83838360405161093b93929190612618565b60405180910390a1505050565b60606001805480602002602001604051908101604052809291908181526020016000905b82821015610a7a57838290600052602060002090600402016040518060a0016040529081600082015481526020016001820180546109a990611fde565b80601f01602080910402602001604051908101604052809291908181526020018280546109d590611fde565b8015610a225780601f106109f757610100808354040283529160200191610a22565b820191906000526020600020905b815481529060010190602001808311610a0557829003601f168201915b505050505081526020016002820160009054906101000a900460ff161515151581526020016002820160019054906101000a900460ff161515151581526020016003820154815250508152602001906001019061096c565b50505050905090565b60018181548110610a9357600080fd5b9060005260206000209060040201600091509050806000015490806001018054610abc90611fde565b80601f0160208091040260200160405190810160405280929190818152602001828054610ae890611fde565b8015610b355780601f10610b0a57610100808354040283529160200191610b35565b820191906000526020600020905b815481529060010190602001808311610b1857829003601f168201915b5050505050908060020160009054906101000a900460ff16908060020160019054906101000a900460ff16908060030154905085565b60008054906101000a900473ffffffffffffffffffffffffffffffffffffffff1681565b60606002805480602002602001604051908101604052809291908181526020016000905b82821015610d245783829060005260206000209060030201604051806060016040529081600082018054610be690611fde565b80601f0160208091040260200160405190810160405280929190818152602001828054610c1290611fde565b8015610c5f5780601f10610c3457610100808354040283529160200191610c5f565b820191906000526020600020905b815481529060010190602001808311610c4257829003601f168201915b50505050508152602001600182018054610c7890611fde565b80601f0160208091040260200160405190810160405280929190818152602001828054610ca490611fde565b8015610cf15780601f10610cc657610100808354040283529160200191610cf1565b820191906000526020600020905b815481529060010190602001808311610cd457829003601f168201915b505050505081526020016002820160009054906101000a900460ff16151515158152505081526020019060010190610bb3565b50505050905090565b606060046000838152602001908152602001600020805480602002602001604051908101604052809291908181526020016000905b82821015610ecc578382906000526020600020906004020160405180608001604052908160008201548152602001600182018054610d9f90611fde565b80601f0160208091040260200160405190810160405280929190818152602001828054610dcb90611fde565b8015610e185780601f10610ded57610100808354040283529160200191610e18565b820191906000526020600020905b815481529060010190602001808311610dfb57829003601f168201915b50505050508152602001600282018054610e3190611fde565b80601f0160208091040260200160405190810160405280929190818152602001828054610e5d90611fde565b8015610eaa5780601f10610e7f57610100808354040283529160200191610eaa565b820191906000526020600020905b815481529060010190602001808311610e8d57829003601f168201915b5050505050815260200160038201548152505081526020019060010190610d62565b505050509050919050565b6003818051602081018201805184825260208301602085012081835280955050505050506000915054906101000a900460ff1681565b60046020528160005260406000208181548110610f2957600080fd5b906000526020600020906004020160009150915050806000015490806001018054610f5390611fde565b80601f0160208091040260200160405190810160405280929190818152602001828054610f7f90611fde565b8015610fcc5780601f10610fa157610100808354040283529160200191610fcc565b820191906000526020600020905b815481529060010190602001808311610faf57829003601f168201915b505050505090806002018054610fe190611fde565b80601f016020809104026020016040519081016040528092919081815260200182805461100d90611fde565b801561105a5780601f1061102f5761010080835404028352916020019161105a565b820191906000526020600020905b81548152906001019060200180831161103d57829003601f168201915b5050505050908060030154905084565b6002818154811061107a57600080fd5b906000526020600020906003020160009150905080600001805461109d90611fde565b80601f01602080910402602001604051908101604052809291908181526020018280546110c990611fde565b80156111165780601f106110eb57610100808354040283529160200191611116565b820191906000526020600020905b8154815290600101906020018083116110f957829003601f168201915b50505050509080600101805461112b90611fde565b80601f016020809104026020016040519081016040528092919081815260200182805461115790611fde565b80156111a45780601f10611179576101008083540402835291602001916111a4565b820191906000526020600020905b81548152906001019060200180831161118757829003601f168201915b5050505050908060020160009054906101000a900460ff16905083565b60008054906101000a900473ffffffffffffffffffffffffffffffffffffffff1673ffffffffffffffffffffffffffffffffffffffff163373ffffffffffffffffffffffffffffffffffffffff161461124f576040517f08c379a0000000000000000000000000000000000000000000000000000000008152600401611246906125f8565b60405180910390fd5b6001805490508110611296576040517f08c379a000000000000000000000000000000000000000000000000000000000815260040161128d90612317565b60405180910390fd5b60018082815481106112ab576112aa612337565b5b906000526020600020906004020160020160016101000a81548160ff0219169083151502179055507f17bee17f9a81c063665248d2e3a768f3307f76864dc54aefe17c8c3edafa350e816040516113029190612656565b60405180910390a150565b60008054906101000a900473ffffffffffffffffffffffffffffffffffffffff1673ffffffffffffffffffffffffffffffffffffffff163373ffffffffffffffffffffffffffffffffffffffff161461139b576040517f08c379a0000000000000000000000000000000000000000000000000000000008152600401611392906125f8565b60405180910390fd5b6003816040516113ab919061247a565b908152602001604051809103902060009054906101000a900460ff1615611407576040517f08c379a00000000000000000000000000000000000000000000000000000000081526004016113fe906126bd565b60405180910390fd5b60026040518060600160405280848152602001838152602001600115158152509080600181540180825580915050600190039060005260206000209060030201600090919091909150600082015181600001908161146591906121bb565b50602082015181600101908161147b91906121bb565b5060408201518160020160006101000a81548160ff021916908315150217905550505060016003826040516114b0919061247a565b908152602001604051809103902060006101000a81548160ff0219169083151502179055507fcd178f088a063a6836a47e704c2450ec7339d32c39e0d33622b107ad86d59b5482826040516115069291906126dd565b60405180910390a15050565b6000604051905090565b600080fd5b600080fd5b6000819050919050565b61153981611526565b811461154457600080fd5b50565b60008135905061155681611530565b92915050565b600080fd5b600080fd5b6000601f19601f8301169050919050565b7f4e487b7100000000000000000000000000000000000000000000000000000000600052604160045260246000fd5b6115af82611566565b810181811067ffffffffffffffff821117156115ce576115cd611577565b5b80604052505050565b60006115e1611512565b90506115ed82826115a6565b919050565b600067ffffffffffffffff82111561160d5761160c611577565b5b61161682611566565b9050602081019050919050565b82818337600083830152505050565b6000611645611640846115f2565b6115d7565b90508281526020810184848401111561166157611660611561565b5b61166c848285611623565b509392505050565b600082601f8301126116895761168861155c565b5b8135611699848260208601611632565b91505092915050565b600080604083850312156116b9576116b861151c565b5b60006116c785828601611547565b925050602083013567ffffffffffffffff8111156116e8576116e7611521565b5b6116f485828601611674565b9150509250929050565b60008115159050919050565b611713816116fe565b82525050565b600060208201905061172e600083018461170a565b92915050565b60006020828403121561174a5761174961151c565b5b600082013567ffffffffffffffff81111561176857611767611521565b5b61177484828501611674565b91505092915050565b6000806000606084860312156117965761179561151c565b5b60006117a486828701611547565b935050602084013567ffffffffffffffff8111156117c5576117c4611521565b5b6117d186828701611674565b925050604084013567ffffffffffffffff8111156117f2576117f1611521565b5b6117fe86828701611674565b9150509250925092565b611811816116fe565b811461181c57600080fd5b50565b60008135905061182e81611808565b92915050565b60008060006060848603121561184d5761184c61151c565b5b600061185b86828701611547565b935050602084013567ffffffffffffffff81111561187c5761187b611521565b5b61188886828701611674565b92505060406118998682870161181f565b9150509250925092565b600081519050919050565b600082825260208201905092915050565b6000819050602082019050919050565b6118d881611526565b82525050565b600081519050919050565b600082825260208201905092915050565b60005b838110156119185780820151818401526020810190506118fd565b60008484015250505050565b600061192f826118de565b61193981856118e9565b93506119498185602086016118fa565b61195281611566565b840191505092915050565b611966816116fe565b82525050565b600060a08301600083015161198460008601826118cf565b506020830151848203602086015261199c8282611924565b91505060408301516119b1604086018261195d565b5060608301516119c4606086018261195d565b5060808301516119d760808601826118cf565b508091505092915050565b60006119ee838361196c565b905092915050565b6000602082019050919050565b6000611a0e826118a3565b611a1881856118ae565b935083602082028501611a2a856118bf565b8060005b85811015611a665784840389528151611a4785826119e2565b9450611a52836119f6565b925060208a01995050600181019050611a2e565b50829750879550505050505092915050565b60006020820190508181036000830152611a928184611a03565b905092915050565b600060208284031215611ab057611aaf61151c565b5b6000611abe84828501611547565b91505092915050565b611ad081611526565b82525050565b600082825260208201905092915050565b6000611af2826118de565b611afc8185611ad6565b9350611b0c8185602086016118fa565b611b1581611566565b840191505092915050565b600060a082019050611b356000830188611ac7565b8181036020830152611b478187611ae7565b9050611b56604083018661170a565b611b63606083018561170a565b611b706080830184611ac7565b9695505050505050565b600073ffffffffffffffffffffffffffffffffffffffff82169050919050565b6000611ba582611b7a565b9050919050565b611bb581611b9a565b82525050565b6000602082019050611bd06000830184611bac565b92915050565b600081519050919050565b600082825260208201905092915050565b6000819050602082019050919050565b60006060830160008301518482036000860152611c1f8282611924565b91505060208301518482036020860152611c398282611924565b9150506040830151611c4e604086018261195d565b508091505092915050565b6000611c658383611c02565b905092915050565b6000602082019050919050565b6000611c8582611bd6565b611c8f8185611be1565b935083602082028501611ca185611bf2565b8060005b85811015611cdd5784840389528151611cbe8582611c59565b9450611cc983611c6d565b925060208a01995050600181019050611ca5565b50829750879550505050505092915050565b60006020820190508181036000830152611d098184611c7a565b905092915050565b600081519050919050565b600082825260208201905092915050565b6000819050602082019050919050565b6000608083016000830151611d5560008601826118cf565b5060208301518482036020860152611d6d8282611924565b91505060408301518482036040860152611d878282611924565b9150506060830151611d9c60608601826118cf565b508091505092915050565b6000611db38383611d3d565b905092915050565b6000602082019050919050565b6000611dd382611d11565b611ddd8185611d1c565b935083602082028501611def85611d2d565b8060005b85811015611e2b5784840389528151611e0c8582611da7565b9450611e1783611dbb565b925060208a01995050600181019050611df3565b50829750879550505050505092915050565b60006020820190508181036000830152611e578184611dc8565b905092915050565b60008060408385031215611e7657611e7561151c565b5b6000611e8485828601611547565b9250506020611e9585828601611547565b9150509250929050565b6000608082019050611eb46000830187611ac7565b8181036020830152611ec68186611ae7565b90508181036040830152611eda8185611ae7565b9050611ee96060830184611ac7565b95945050505050565b60006060820190508181036000830152611f0c8186611ae7565b90508181036020830152611f208185611ae7565b9050611f2f604083018461170a565b949350505050565b60008060408385031215611f4e57611f4d61151c565b5b600083013567ffffffffffffffff811115611f6c57611f6b611521565b5b611f7885828601611674565b925050602083013567ffffffffffffffff811115611f9957611f98611521565b5b611fa585828601611674565b9150509250929050565b7f4e487b7100000000000000000000000000000000000000000000000000000000600052602260045260246000fd5b60006002820490506001821680611ff657607f821691505b60208210810361200957612008611faf565b5b50919050565b60008190508160005260206000209050919050565b60006020601f8301049050919050565b600082821b905092915050565b6000600883026120717fffffffffffffffffffffffffffffffffffffffffffffffffffffffffffffffff82612034565b61207b8683612034565b95508019841693508086168417925050509392505050565b6000819050919050565b60006120b86120b36120ae84611526565b612093565b611526565b9050919050565b6000819050919050565b6120d28361209d565b6120e66120de826120bf565b848454612041565b825550505050565b600090565b6120fb6120ee565b6121068184846120c9565b505050565b5b8181101561212a5761211f6000826120f3565b60018101905061210c565b5050565b601f82111561216f576121408161200f565b61214984612024565b81016020851015612158578190505b61216c61216485612024565b83018261210b565b50505b505050565b600082821c905092915050565b600061219260001984600802612174565b1980831691505092915050565b60006121ab8383612181565b9150826002028217905092915050565b6121c4826118de565b67ffffffffffffffff8111156121dd576121dc611577565b5b6121e78254611fde565b6121f282828561212e565b600060209050601f8311600181146122255760008415612213578287015190505b61221d858261219f565b865550612285565b601f1984166122338661200f565b60005b8281101561225b57848901518255600182019150602085019450602081019050612236565b868310156122785784890151612274601f891682612181565b8355505b6001600288020188555050505b505050505050565b60006060820190506122a26000830186611ac7565b81810360208301526122b48185611ae7565b90506122c36040830184611ac7565b949350505050565b7f42756f6920686f63206b686f6e6720746f6e2074616900000000000000000000600082015250565b6000612301601683611ad6565b915061230c826122cb565b602082019050919050565b60006020820190508181036000830152612330816122f4565b9050919050565b7f4e487b7100000000000000000000000000000000000000000000000000000000600052603260045260246000fd5b7f42756f6920686f6320646120626920786f610000000000000000000000000000600082015250565b600061239c601283611ad6565b91506123a782612366565b602082019050919050565b600060208201905081810360008301526123cb8161238f565b9050919050565b7f42756f6920686f63206461206b65742074687563000000000000000000000000600082015250565b6000612408601483611ad6565b9150612413826123d2565b602082019050919050565b60006020820190508181036000830152612437816123fb565b9050919050565b600081905092915050565b6000612454826118de565b61245e818561243e565b935061246e8185602086016118fa565b80840191505092915050565b60006124868284612449565b915081905092915050565b7f53696e68207669656e206e6179206461206469656d2064616e682074726f6e6760008201527f2062756f69206e617920726f6921000000000000000000000000000000000000602082015250565b60006124ed602e83611ad6565b91506124f882612491565b604082019050919050565b6000602082019050818103600083015261251c816124e0565b9050919050565b7f4e487b7100000000000000000000000000000000000000000000000000000000600052601160045260246000fd5b600061255d82611526565b915061256883611526565b92508282019050808211156125805761257f612523565b5b92915050565b7f436869206769616e67207669656e206d6f692064756f6320746875632068696560008201527f6e207468616f20746163206e6179000000000000000000000000000000000000602082015250565b60006125e2602e83611ad6565b91506125ed82612586565b604082019050919050565b60006020820190508181036000830152612611816125d5565b9050919050565b600060608201905061262d6000830186611ac7565b818103602083015261263f8185611ae7565b905061264e604083018461170a565b949350505050565b600060208201905061266b6000830184611ac7565b92915050565b7f53696e68207669656e206e617920646120746f6e207461690000000000000000600082015250565b60006126a7601883611ad6565b91506126b282612671565b602082019050919050565b600060208201905081810360008301526126d68161269a565b9050919050565b600060408201905081810360008301526126f78185611ae7565b9050818103602083015261270b8184611ae7565b9050939250505056fea264697066735822122068aeb4da0fdfdf27854bd110fe776d8dd9a84fd61907385c190b6b0a5b8d2bbf64736f6c63430008140033",
  "linkReferences": {},
  "deployedLinkReferences": {}
}